:100000000C9466000C948E000C948E000C948E0060
:100010000C948E000C948E000C948E000C948E0028
:100020000C948E000C948E000C948E000C94260779
:100030000C948E000C948E000C948E000C948E0008
:100040000C94B1020C948E000C94DD000C94BD084D
:100050000C948E000C948E000C948E000C948E00E8
:100060000C947C050C948E000000000024002700F6
:100070002A0000000000250028002B0004040404CE
:100080000404040402020202020203030303030342
:10009000010204081020408001020408102001021F
:1000A00004081020000000070002010000030406FD
:1000B00000000000000000001112131415160A0BB6
:1000C0000C0D0E0F000102030405940D11241FBE38
:1000D000CFEFD8E0DEBFCDBF11E0A0E0B1E0E4EDAE
:1000E000FDE102C005900D92AE32B107D9F722E0D2
:1000F000AEE2B1E001C01D92AA3EB207E1F710E006
:10010000C6E6D0E004C02197FE010E94E20EC5368B
:10011000D107C9F70E94F8080C94010E0C94000056
:10012000CF92DF92EF92FF920F931F93CF93DF93C3
:100130006C01EB017B01E40EF51E00E010E0CE1532
:10014000DF0561F06991D601ED91FC910190F0819C
:10015000E02DC6010995080F191FF1CFC801DF91E5
:10016000CF911F910F91FF90EF90DF90CF90089566
:100170003FB7F8948091310190913201A091330101
:10018000B091340126B5A89B05C02F3F19F0019608
:10019000A11DB11D3FBFBA2FA92F982F8827820F0D
:1001A000911DA11DB11DBC01CD0142E0660F771F5D
:1001B000881F991F4A95D1F708951F920F920FB685
:1001C0000F9211242F934F935F938F939F93EF93ED
:1001D000FF938091C00082FD1CC02091C6008091D9
:1001E000F6019091F7014091F8015091F9010196C3
:1001F0008F7399274817590771F0E091F601F09134
:10020000F701EA54FE4F20839093F7018093F601A3
:1002100002C08091C600FF91EF919F918F915F91F5
:100220004F912F910F900FBE0F901F90189590E057
:10023000FC01EC55FF4F2491FC01E057FF4F349136
:10024000FC01E458FF4FE491EE2309F43CC0222363
:1002500039F1233091F038F42130A9F0223001F542
:1002600084B58F7D12C0263091F02730A1F0243064
:10027000B9F4809180008F7D03C0809180008F77DA
:10028000809380000DC084B58F7784BD09C08091B4
:10029000B0008F7703C08091B0008F7D8093B00055
:1002A000F0E0EE0FFF1FEE58FF4FA591B4919FB7FE
:1002B000F894611104C08C913095382302C0EC9100
:1002C0003E2B3C939FBF0895CF93DF9390E0FC01BA
:1002D000E057FF4F2491FC01E458FF4F849188239D
:1002E00061F190E0880F991FFC01E859FF4FC5911B
:1002F000D491FC01EE58FF4FA591B491611109C052
:100300009FB7F8948881209582238883EC912E23CF
:100310000BC0623061F49FB7F8948881322F30951A
:1003200083238883EC912E2B2C939FBF06C08FB71D
:10033000F894E8812E2B28838FBFDF91CF91089509
:10034000019739F0880F991F880F991F029701971D
:10035000F1F70895CF92DF92EF92FF92CF93DF9360
:100360006B017C010E94B800EB01C114D104E104CF
:10037000F10479F00E94B8006C1B7D0B683E73405D
:10038000A0F381E0C81AD108E108F108C851DC4F98
:10039000ECCFDF91CF91FF90EF90DF90CF90089559
:1003A0004F925F926F927F92AF92BF92CF92DF9205
:1003B000EF92FF920F931F93CF93DF9300D000D063
:1003C00000D0CDB7DEB769837A838B832C833D83DE
:1003D0004E8310932F0100932E0184E18C9D200108
:1003E0008D9D500C1124052C000C660877088DEAB1
:1003F000A82EB12CE016F106F4F400912E01109114
:100400002F010E151F05ACF1B801CE0101960E9417
:10041000A306B501601B710BCE0104960E94A306D2
:10042000C301B2010E94AA010C191D0910932F01EA
:1004300000932E01E2CF00912E0110912F01E016C2
:10044000F106BCF0B801CE0101960E94A306B501E9
:10045000601B710BCE0104960E94A306C301B2017A
:100460000E94AA010C0D1D1D10932F0100932E0157
:10047000E2CF26960FB6F894DEBF0FBECDBFDF9158
:10048000CF911F910F91FF90EF90DF90CF90BF9091
:10049000AF907F906F905F904F9008958F929F9252
:1004A000AF92BF92CF92DF92EF92FF920F931F9382
:1004B000CF93DF9300D01F92CDB7DEB769837A83E5
:1004C0008B83690150932F0140932E0184E1809F1B
:1004D0004001819F900C1124092C000CAA08BB0834
:1004E00024173507BCF4E0902E01F0902F01EC1496
:1004F000FD043CF1B701CE0101960E94A306C5019F
:10050000B4010E94AA01E01AF10AF0922F01E092D0
:100510002E01E9CFE0902E01F0902F01CE14DF04E0
:1005200084F0B701CE0101960E94A306C501B40173
:100530000E94AA01E00EF11EF0922F01E0922E011E
:10054000E9CF0F900F900F90DF91CF911F910F91F6
:10055000FF90EF90DF90CF90BF90AF909F908F90E3
:1005600008951F920F920FB60F9211242F933F936D
:100570008F939F93AF93BF938091360190913701F2
:10058000A0913801B09139013091300123E0230F5F
:100590002D3720F40196A11DB11D05C026E8230FBB
:1005A0000296A11DB11D20933001809336019093D6
:1005B0003701A0933801B0933901809131019091B6
:1005C0003201A0913301B09134010196A11DB11DFA
:1005D0008093310190933201A0933301B0933401A1
:1005E000BF91AF919F918F913F912F910F900FBE2F
:1005F0000F901F90189585ED8093BC008091BC00F2
:1006000084FDFCCF109284010895613298F420910A
:100610008401243089F460935F02282FAFE3B2E0B5
:10062000FC018E2F821B861718F481918D93F9CFD0
:1006300080E0089581E0089582E008950895089586
:10064000E091820180918101E81730F4F0E0EF59E8
:10065000FE4F808190E008958FEF9FEF0895909175
:10066000820180918101981750F4E92FF0E0EF5951
:10067000FE4F208130E09F5F9093820102C02FEFF8
:100680003FEFC90108958091810190E0209182019E
:10069000821B91090895CF92DF92EF92FF920F9300
:1006A0001F93CF93DF937C01CB018A0120916001DE
:1006B000222389F0EB016B01C40ED51ECC15DD059C
:1006C00069F06991D701ED91FC910190F081E02DE5
:1006D000C7010995F3CF642F0E940503C801DF917C
:1006E000CF911F910F91FF90EF90DF90CF900895E1
:1006F000CF93DF931F92CDB7DEB76983209160015E
:100700002223D1F020915F01203240F021E030E03F
:10071000FC013383228380E090E015C080915E016C
:10072000E82FF0E0E25CFE4F998190838F5F809329
:100730005E0180935F0105C061E0CE0101960E94D9
:10074000050381E090E00F90DF91CF9108950F9322
:100750001F93CF93DF93FC01A685B7858D01005CC5
:100760001F4FE8018881998101968F739927AD0108
:100770004E5B5F4FEA012881398128173907D1F391
:10078000E80128813981A20FB31F6C93A685B78534
:10079000A05CBF4F11969C938E93A689B7892C912C
:1007A00081E090E0078C02C0880F991F0A94E2F75D
:1007B000822B8C9381E081A30488F589E02D8081D0
:1007C0008064808381E090E0DF91CF911F910F9151
:1007D0000895FC0181A1882329F0A489B5898C9111
:1007E00086FFFBCF11A20895FC01A485B585FD010C
:1007F000E05CFF4F20813181329680819181281702
:10080000390779F080819181A80FB91F8C912081DF
:1008100031812F5F3F4F2F7333273183208390E047
:1008200008958FEF9FEF0895DC011C96ED91FC91E8
:100830001D97DF01A05CBF4F2D913C91119712963F
:100840008D919C9111972817390739F08D919C91C2
:10085000E80FF91F808190E008958FEF9FEF0895D2
:10086000FC0124853585F901E05CFF4F8081918191
:10087000329620813181821B930B8F7399270895C3
:100880008AEF91E00C9430048F929F92AF92BF92C6
:10089000EF92FF920F931F93CF93DF93CDB7DEB705
:1008A000A1970FB6F894DEBF0FBECDBF162F042F51
:1008B00019A2423008F40AE07E0121E2E20EF11CA6
:1008C000802E912CA12CB12C612FA50194010E94A6
:1008D000360E029F1019112481E0E81AF1081A302F
:1008E00014F4105D01C0195CF7011083122F732FEF
:1008F000CA01232B242B252B39F7E114F10469F0CD
:1009000001900020E9F73197AF014E195F09B70157
:100910008AEF91E00E94900002C080E090E0A196F2
:100920000FB6F894DEBF0FBECDBFDF91CF911F9100
:100930000F91FF90EF90BF90AF909F908F90089590
:10094000CF93DF939CB59F7D9CBD9CB5937F9CBD51
:100950009CB59C7F9CBD9DB591609DBDCCE1D2E0D6
:10096000682F8A810E9417018C899D89DF91CF9120
:100970000C94A00181E00C94A00480E00C94A004ED
:1009800020911C0230911D0240911E0250911F02C5
:100990002417350721F0682F822F0C941701089532
:1009A0001F93CF93DF93EC01162F88818C3008F0D2
:1009B00050C061E0812F0E9464018881E82FF0E03F
:1009C0009F01220F331FE20FF31FEE57FD4F1F73DE
:1009D0009081907C192B108392EF998397EE9A83E4
:1009E0006CE00E94D60E9CE0899FB001112440E08B
:1009F00050E09B01240F351FF901EE0FFF1F2E0F52
:100A00003F1FF901EE57FD4F908196FD16C04F5FD5
:100A10005F4F4C30510569F781110FC01092800073
:100A200082E0809381001092850010928400B19A38
:100A300080916F00826080936F00E881F0E0CF01C9
:100A4000880F991FE80FF91FEE57FD4F80818064D2
:100A500080838881DF91CF911F910895CF92DF929B
:100A6000EF92FF92CF93DF936C01990FEE08FF088E
:100A7000F7FE13C06DE28AEF91E00E94A703EC013C
:100A800066277727CB016C197D098E099F094AE0FB
:100A90000E944404C80FD91F06C04AE0C701B6012E
:100AA0000E944404EC016DE08AEF91E00E94A703EC
:100AB0007C016AE08AEF91E00E94A703CE0DDF1D62
:100AC0008C0F9D1FDF91CF91FF90EF90DF90CF9023
:100AD000089580E480937C0080917A008064809304
:100AE0007A0080917A0086FDFCCF80917800209179
:100AF000790090E0922B08951F920F920FB60F92FB
:100B000011242F933F934F935F936F937F938F9312
:100B10009F93AF93BF93EF93FF938091B900887F2A
:100B2000803609F49CC068F5883209F45BC090F403
:100B3000803109F454C038F4882309F4EFC08830B8
:100B400009F44DC0EFC0883109F44CC0803209F47B
:100B50005DC0E8C0803409F468C048F4803309F40B
:100B600055C0883309F0DEC080938301D1C0803541
:100B700009F44FC0883509F45DC0883409F0D2C04B
:100B8000CFC0883909F4C0C0A8F4883709F467C019
:100B900038F4883609F463C0803709F460C0C2C0F5
:100BA000883809F4B1C0803909F45FC0803809F091
:100BB000B9C05BC0803B09F481C038F4803A09F4C5
:100BC00066C0883A09F47AC0ADC0803C09F4A0C080
:100BD000883C09F49DC0883B09F483C0A3C0809180
:100BE000A90110C09091A8018091A701981770F5F4
:100BF000E091A80181E08E0F8093A801F0E0E95711
:100C0000FE4F80818093BB0085EC7FC08093830181
:100C100087C0E091A80181E08E0F8093A8018091A8
:100C2000BB00F0E0E957FE4F80839091A8018091CE
:100C3000A70167C0E091A80181E08E0F8093A80111
:100C40008091BB00F0E0E957FE4F808380918601E0
:100C5000811166C081E08093850184EA5AC083E0F7
:100C60008093840110928102CFCF809181028032E3
:100C700008F04AC0E091810281E08E0F80938102EA
:100C80008091BB00F0E0EF59FD4F8083BDCF809194
:100C90008102803230F4E0918102F0E0EF59FD4FA3
:100CA00010820E94FB026091810270E081E692E076
:100CB000E0E0F0E00995109281022AC084E0809380
:100CC00084011092600210925F02E0E0F0E009956A
:100CD00080915F02811105C081E080935F021092D4
:100CE0003F02E091600281E08E0F80936002F0E0AD
:100CF000E15CFD4F80818093BB0090916002809108
:100D00005F02981708F480CF85E88093BC000AC082
:100D100085EC8093BC001092840104C01092830182
:100D20000E94FB02FF91EF91BF91AF919F918F9134
:100D30007F916F915F914F913F912F910F900FBED7
:100D40000F901F901895CF92DF92EF92FF92CF9362
:100D5000DF93EC01603282E078070CF03DC077FD54
:100D600006C0653B71052CF064EB70E002C060E0EA
:100D700070E0898128E830E06901C81AD10887FD50
:100D8000D394CC0CDD1CCC0CDD1C0D2C000CEE081F
:100D9000FF088A8128E532E0281B310987FD339559
:100DA000220F331F220F331FC901330FAA0BBB0BB6
:100DB0009C01AD012C193D094E095F09DB010E9420
:100DC0002E0E24EB30E040E050E00E94040EC20EF4
:100DD000D31EE41EF51EB60138813C3080F5298112
:100DE00088E890E0821B910927FD9395880F991F51
:100DF000880F991F6817790784F08A8148E552E0C7
:100E0000481B510987FD5395440F551F440F551F2B
:100E1000CB01461757070CF4CA014FB7F894232F9C
:100E200030E0F901EE0FFF1F2E0F3F1FF901EE57C3
:100E3000FD4F0297880F991F928381834FBFDF91E7
:100E4000CF91FF90EF90DF90CF9008951F920F9277
:100E50000FB60F9211242F933F934F935F936F938D
:100E60007F938F939F93AF93BF93EF93FF93809163
:100E70003D0287FF05C010928500109284001BC0C0
:100E800020913D02022E000C330B80913E0290E037
:100E90002817390784F480913D02082E000C990B25
:100EA000FC01EE0FFF1F8E0F9F1FFC01EE57FD4F41
:100EB000808186FD15C080913D028F5F80933D0249
:100EC00020913D02022E000C330B80913E0290E0F7
:100ED00028173907C4F480913D028C3064F113C0A7
:100EE00080913D02082E000C990BFC01EE0FFF1FB4
:100EF0008E0F9F1FFC01EE57FD4F808160E08F73C6
:100F00000E941701D8CF80918400909185000496AB
:100F100080349C4918F480E49CE905C080918400E9
:100F200090918500049690938900809388008FEFBC
:100F300080933D023BC020918400309185008091D8
:100F40003D02082E000C990BFC01EE0FFF1F8E0FC7
:100F50009F1FFC01EE57FD4F81819281820F931FED
:100F6000909389008093880080913D02082E000CA8
:100F7000990BFC01EE0FFF1F8E0F9F1FFC01EE5718
:100F8000FD4F808186FF12C080913D02082E000C2B
:100F9000990BFC01EE0FFF1F8E0F9F1FFC01EE57F8
:100FA000FD4F808161E08F730E941701FF91EF91E7
:100FB000BF91AF919F918F917F916F915F914F9171
:100FC0003F912F910F900FBE0F901F9018958EBDDF
:100FD0000DB407FEFDCF8EB50895CF93DF93C82FD4
:100FE000D62F0E94BD048C2F8F7180620E94E7076C
:100FF000C82F8D2F0E94E7070E94BA048C2FDF9123
:10100000CF910895CF93C82F0E94BD048C2F8F716C
:101010000E94E7078FEF0E94E707C82F0E94BA04DB
:101020008C2FCF91089580E00E94020881FD0BC0B3
:10103000682F626080E00E94ED0765E070E080E06C
:1010400090E00C94AA010895CF930E94BD0481EE14
:101050000E94E707C82F0E94BA048C2FCF910895F1
:1010600080E00E94C00480912C0290912D020E9489
:10107000A0018DE10E94020881FF08C080912C022E
:1010800090912D020E94A0010E94240880E00E94FD
:101090000208682F6E7F80E00E94ED0782E00E94C8
:1010A0000208E4ECF0E0E49161E070E001C0660F5A
:1010B000EA95EAF7682B82E00C94ED07EF92FF9235
:1010C0000F931F93CF93DF93182F7B01C42F0E94A0
:1010D000BD04812F8F7180620E94E707D82F87019E
:1010E000CC2339F0F80181918F010E94E707C150AC
:1010F000F7CF0E94BA048D2FDF91CF911F910F91EE
:10110000FF90EF900895CF93DF93EEEBF0E08491A2
:10111000CCE1D2E04E8567E071E00E945E08E8EB2A
:10112000F0E084916F810E94ED0782E00E94020846
:10113000E4ECF0E0E49161E070E001C0660FEA9554
:10114000EAF7682B82E0DF91CF910C94ED07CF9303
:10115000DF93CCE1D2E04E8561E071E08AE00E944D
:101160005E084E8561E071E080E10E945E086F815B
:1011700081E1DF91CF910C94ED071F920F920FB692
:101180000F9211242F933F938F939F93EF93FF938D
:101190002091E6023091E7028091E8029091E90205
:1011A0002817390731F48091C1008F7D8093C100E9
:1011B00014C0E091E802F091E902EA55FD4F208168
:1011C0008091E8029091E90201968F73992790939C
:1011D000E9028093E8022093C600FF91EF919F916E
:1011E0008F913F912F910F900FBE0F901F901895E8
:1011F000CF93DF9300D0CDB7DEB7789484B582600B
:1012000084BD84B5816084BD85B5826085BD85B5AA
:10121000816085BD80916E00816080936E00109228
:1012200081008091810082608093810080918100A3
:101230008160809381008091800081608093800034
:101240008091B10084608093B1008091B000816092
:101250008093B00080917A00846080937A008091BE
:101260007A00826080937A0080917A008160809316
:101270007A0080917A00806880937A001092C10091
:1012800061E085E00E94640161E08FE00E946401FA
:1012900060E08EE00E94640168E070E08AE392E022
:1012A0000E94D00466E070E087E392E00E94D004E0
:1012B00067E070E084E392E00E94D004209137025E
:1012C000309138024091390260913A0270913B02AC
:1012D00080913C0292E0C92ED12C52E0E52EF12CF7
:1012E00000E010E00E94D00160913402709135025C
:1012F0008091360202E010E021E130E04FE050E062
:101300000E944E0261E083E00E94640161E084E09B
:101310000E94640161E082E00E94640161E082E079
:101320000E941701E0910E02F0910F0281E090E01F
:101330009C0100901A0202C0220F331F0A94E2F7A8
:101340002083E0910A02F0910B021082E0910C02DE
:10135000F0910D022FEC208310921B02E0911002FD
:10136000F091110240819C010090160202C0220FF0
:10137000331F0A94E2F7242B2083E0911002F091AE
:10138000110240819C010090170202C0220F331FFE
:101390000A94E2F7242B2083E0911002F0911102CD
:1013A00040819C010090180202C0220F331F0A9452
:1013B000E2F7242B2083E0911002F09111022081AA
:1013C0000090190202C0880F991F0A94E2F78095D5
:1013D0008223808380911C0290911D0220911E0225
:1013E00030911F028217930719F061E00E94640197
:1013F00080911E0290911F0220911C0230911D02CB
:101400002817390719F061E00E94640161E08AE061
:101410000E94170161E08AE00E9464018CB580613E
:101420008CBD8CB580648CBD61E08DE00E94640150
:1014300061E08BE00E94640180E00E94C00481E0D2
:101440000E94A00465E070E080E090E00E94AA01A4
:101450006CE080E00E94ED076FE584E00E94ED07FC
:1014600086E00E940208877D182F10628BE990E0C9
:10147000A0E0B0E080932C0290932D02A0932E0266
:10148000B0932F02612F86E00E94ED0786E00E9454
:101490000208181709F4F1C286E00E94020886E0EB
:1014A0000E94020845E550E060E070E040932C02A5
:1014B00050932D0260932E0270932F02682F677D48
:1014C00086E00E94ED0786E00E9402080E94BD04AB
:1014D00080E50E94E70783E70E94E7070E94BA04BD
:1014E00060E08DE10E94ED0760E08CE10E94ED0775
:1014F0001092240260E787E00E94ED076CE485E02B
:101500000E94ED070E94BD0482EE0E94E7070E9440
:10151000BA040E9424080E94130880E00E94020876
:10152000682F6E7F80E00E94ED070E94A70840911F
:101530002A0250E067E071E085E292E00E94670EC7
:101540000E9483080E94300810928201109281014B
:1015500010925E0110925F011092840181E08093ED
:1015600086011092850161E082E10E94170161E02D
:1015700083E10E9417018091B9008E7F8093B900AA
:101580008091B9008D7F8093B90088E48093B80082
:1015900085E48093BC00AEE04A2EBB24BA94B5EE3D
:1015A000AB2E15EC512E04EC802E00E0902E66241C
:1015B0006394712C8AEF91E00E943004181619068A
:1015C0000CF058C28AEF91E00E94F40390933D0121
:1015D00080933C01C19709F0C6C00E94A7084091C2
:1015E0002A0250E067E071E085E292E00E94670E17
:1015F0000E9483080BE010E0332433940E943008EB
:10160000F0902302EF2CFF2011F0EE24E394809160
:101610002402811102C0FE1801C0F12C0E94BD04F9
:1016200080EA0E94E707EE2021F0809100010E94ED
:10163000E707FF2029F080E00E94E707FA94F9CF3E
:101640000E94BA0481E00E94C0048FB7F894C09051
:101650003601D0903701E0903801F09039018FBF0A
:101660000E94BD048FEF0E94E707282E0E94BA0453
:10167000822D8073B9F42FB7F89480913601909140
:101680003701A0913801B09139012FBF8C199D0904
:10169000AE09BF0980369105A105B10508F3309266
:1016A0002B020AC080E00E94C00460E787E00E942D
:1016B000ED0784FD0E94240868EE73E080E090E06E
:1016C0000E94AA010E94130880E00E940208682F6D
:1016D000616080E00E94ED0760E787E00E94ED070F
:1016E00081E00E94C00480912502882341F040914E
:1016F0002A0265E272E08AE00E945E080FC082E082
:101700000E940208F4019491B30101C0660F9A95FA
:10171000EAF76095682382E00E94ED078DE10E9460
:10172000020881FD0E94240868EE73E080E090E0EA
:101730000E94AA0187E10E94020880FDA2C187E100
:101740000E94020880FFA2C1D0C10E94BA0460E7D3
:1017500087E00E94ED0789819A8197FFBEC180E0F2
:1017600090E00E942E0580913C0190913D01C4972C
:1017700009F0ADC081E08093600140923501109284
:101780005E0110925F0164E08AEA91E00E947803B2
:1017900090915F01913208F03FC0809184018111E6
:1017A000FCCF82E08093840181E080938601B09237
:1017B00083011092A8019093A701AEE3B1E0E7E89E
:1017C000F1E080E0981721F02D9121938F5FFACFFF
:1017D0001092A9018091A9018C618093A901809147
:1017E0008501813049F4109285018091A90180938F
:1017F000BB005092BC0002C0A092BC00809184014A
:101800008230E1F3809183018F3F31F08091830139
:10181000803211F08091830110925E0110925F017D
:1018200010926001809184018111FCCF81E080934E
:10183000840180938601B09283011092A801809365
:10184000A7018093A9018091A9018C618093A901CE
:1018500080918501813049F4109285018091A90120
:101860008093BB005092BC0002C0A092BC0080914B
:1018700084018130E1F38091A801823018F49091C5
:10188000A80101C092E0E7E8F1E0A1E6B1E080E064
:10189000891721F021912D938F5FFACF1092820149
:1018A0008093810190E0039764F48AEA91E00E94BA
:1018B0002F0390933B0180933A018AEA91E00E94C2
:1018C0002F0380913A0190913B010E942E05809157
:1018D0003C0190913D01C59709F0A6C020913702C7
:1018E000309138024091390260913A0270913B0286
:1018F00080913C02E2E0CE2ED12CF6E4EF2EF12CCA
:1019000002E010E00E94D001609134027091350233
:101910008091360224E630E041E150E00E944E0220
:1019200060ED77E080E090E00E94AA0160E082E054
:101930000E94170160E084E00E94170100E010E0BF
:10194000B801012E000C880B990B0E94770E2BEC2E
:101950003AE847E055E40E94700E61E087FF12C04C
:1019600083E00E94170184E893E00E94A00160E0F8
:1019700083E00E94170184E893E00E94A0010F5FBA
:101980001F4FDECF84E00E94170100E010E0B80195
:10199000012E000C880B990B0E94770E2BEC3AE875
:1019A00047E055E40E94700E61E087FF12C083E0BB
:1019B0000E94170184E893E00E94A00160E083E0A8
:1019C0000E94170184E893E00E94A0010F5F1F4F5F
:1019D000DECF82E00E9417016091340270913502DF
:1019E0008091360202E010E021E130E044E650E070
:1019F0000E944E0220913702309138024091390204
:101A000060913A0270913B0280913C0292E0C92EB3
:101A1000D12C52E0E52EF12C06E410E00E94D0011A
:101A200085E390E00E942E0580913C0190913D015C
:101A3000C69701F561E08FE00E94170160E085E044
:101A40000E94170164E670E080E090E00E94AA0125
:101A50000E946905883592406CF461E085E00E943F
:101A600017010E94690588359240DCF360E085E04B
:101A70000E9417010E9440049DCD81E080932202C4
:101A80000BCD0150110909F0B9CD59CE1A82198236
:101A900010912302123038F102E08091240281116A
:101AA00002C0101B01C010E00E94BD0481E60E942C
:101AB000E707CE0101967C01015038F08FEF0E94BC
:101AC000E707F70181937F01F7CF112309F43DCE9A
:101AD0008FEF0E94E7071150F8CF892B09F443CE0E
:101AE00081E390E03ECE012FD8CF82E390E039CE63
:101AF000FC0190913E029C30A0F481E0890F80931C
:101B00003E029083892F90E0FC01EE0FFF1F8E0FA5
:101B10009F1FFC01EE57FD4F88EB9BE09283818372
:101B200008958FEF80830895CF93EAEAF1E013825E
:101B3000128288EE93E0A0E0B0E084839583A683D0
:101B4000B78321E131E031832083EAEFF1E01382B2
:101B5000128284839583A683B78381E291E0918387
:101B6000808386EB91E09587848786EA92E0978769
:101B7000868785EC90E0918B808B84EC90E0938B52
:101B8000828B80EC90E0958B848B81EC90E0978B3E
:101B9000868B82EC90E0918F808F86EC90E0938F23
:101BA000828F84E0848F83E0858F87E0868FC5E015
:101BB000C78F81E080A38AE392E00E94780D87E3DB
:101BC00092E00E94780D84E392E00E94780DECE1AF
:101BD000F2E089E090E0918380838AE090E0938353
:101BE0008283168280E287831086C68785E090E034
:101BF000A0E0B0E0848B958BA68BB78B1186CF913C
:101C00000895F8940C94E80E052E97FB1EF40094AA
:101C10000E941B0E57FD07D00E94360E07FC03D012
:101C20004EF40C941B0E50954095309521953F4FE6
:101C30004F4F5F4F089590958095709561957F4FB8
:101C40008F4F9F4F08950E94580EA59F900DB49FEF
:101C5000900DA49F800D911D11240895B7FF0C9441
:101C6000230E0E94230E821B930B0895A1E21A2ECD
:101C7000AA1BBB1BFD010DC0AA1FBB1FEE1FFF1F30
:101C8000A217B307E407F50720F0A21BB30BE40B80
:101C9000F50B661F771F881F991F1A9469F76095C7
:101CA0007095809590959B01AC01BD01CF01089581
:101CB000A29FB001B39FC001A39F700D811D11248D
:101CC000911DB29F700D811D1124911D0895FB017E
:101CD000DC0102C001900D9241505040D8F70895A8
:101CE0000E94B20E08F481E00895E89409C097FBC1
:101CF0003EF490958095709561957F4F8F4F9F4FE3
:101D00009923A9F0F92F96E9BB279395F695879526
:101D100077956795B795F111F8CFFAF4BB0F11F4E9
:101D200060FF1BC06F5F7F4F8F4F9F4F16C0882390
:101D300011F096E911C0772321F09EE8872F762FC6
:101D400005C0662371F096E8862F70E060E02AF007
:101D50009A95660F771F881FDAF7880F96958795F3
:101D600097F90895990F0008550FAA0BE0E8FEEFC8
:101D700016161706E807F907C0F012161306E4074F
:101D8000F50798F0621B730B840B950B39F40A2648
:101D900061F0232B242B252B21F408950A2609F426
:101DA000A140A6958FEF811D811D0895991B79E0B3
:101DB00004C0991F961708F0961B881F7A95C9F7DB
:101DC00080950895EE0FFF1F0590F491E02D099482
:041DD000F894FFCFB5
:101DD40001303030303100414243444500000000BE
:101DE4000078034B0343032F0320031F0300000069
:0E1DF40000A70390003004F4031404E9030078
:00000001FF
