:100000000C9462000C948A000C948A000C948A0070
:100010000C948A000C948A000C948A000C948A0038
:100020000C948A000C948A000C948A000C948A0028
:100030000C948A000C948A000C948A000C948A0018
:100040000C94A2030C948A000C9468030C942D0366
:100050000C948A000C948A000C948A000C948A00F8
:100060000C948A000C948A000000000024002700F1
:100070002A0000000000250028002B0000000007D7
:100080000002010000030406000000000000000060
:1000900000000000230026002900040404040404D6
:1000A0000404020202020202030303030303010227
:1000B00004081020408001020408102001020408F6
:1000C0001020EC0311241FBECFEFD8E0DEBFCDBF60
:1000D00022E0A2E1B1E001C01D92A231B207E1F736
:1000E00011E0A0E0B1E0E0EDF3E102C005900D9277
:1000F000A231B107D9F710E0C2E6D0E004C02197E1
:10010000FE010E94D109C136D107C9F70E94270418
:100110000C941D080C9400008F929F92AF92BF9296
:10012000CF92DF92EF92FF920F931F93CF9390E0C5
:10013000FC01E255FF4FC491FC01E656FF4F84914C
:100140007F7090E0880F991F80579F4F4A015B0195
:100150000FEF801A900AA00AB00AC12CD12C7601A8
:10016000FC01A591B4912C912C23C2131AC01FEF4E
:10017000C11AD10AE10AF10AC814D904EA04FB043D
:1001800079F745C0460157012FEF821A920AA20A59
:10019000B20A4C155D056E057F0509F438C075017E
:1001A0006401FC01A591B4912C912C23C213EACFD8
:1001B0008A019B010C191D092E093F09680179016B
:1001C00020E030E0A901FC01A591B4916C916C2371
:1001D000C6130AC0C216D306E406F506C1F02F5FA7
:1001E0003F4F4F4F5F4FEFCFA5E1B0E00E94C609F0
:1001F000DC01CB014096A11DB11DBC01CD0124E065
:1002000096958795779567952A95D1F703C060E015
:1002100070E0CB01CF911F910F91FF90EF90DF9095
:10022000CF90BF90AF909F908F90089508950F93B7
:100230001F93CF93DF93FC01A685B7858D01005CEA
:100240001F4FE8018881998101968F739927AD012D
:100250004E5B5F4FEA012881398128173907D1F3B6
:10026000E80128813981A20FB31F6C93A685B78559
:10027000A05CBF4F11969C938E93A689B7892C9151
:1002800081E090E0078C02C0880F991F0A94E2F782
:10029000822B8C9381E081A30488F589E02D8081F5
:1002A0008064808381E090E0DF91CF911F910F9176
:1002B0000895FC0181A1882329F0A489B5898C9136
:1002C00086FFFBCF11A20895FC01A485B585FD0131
:1002D000E05CFF4F20813181329680819181281727
:1002E000390779F080819181A80FB91F8C91208105
:1002F00031812F5F3F4F2F7333273183208390E06D
:1003000008958FEF9FEF0895DC011C96ED91FC910D
:100310001D97DF01A05CBF4F2D913C911197129664
:100320008D919C9111972817390739F08D919C91E7
:10033000E80FF91F808190E008958FEF9FEF0895F7
:10034000FC0124853585F901E05CFF4F80819181B6
:10035000329620813181821B930B8F7399270895E8
:100360008EEE91E00C94A001CF92DF92EF92FF927B
:100370000F931F93CF93DF936C01EB017B01E40E8E
:10038000F51E00E010E0CE15DF0561F06991D601A1
:10039000ED91FC910190F081E02DC6010995080FC7
:1003A000191FF1CFC801DF91CF911F910F91FF90DD
:1003B000EF90DF90CF90089590E0FC01E458FF4F5C
:1003C0002491FC01E255FF4F3491FC01E656FF4FAA
:1003D000E491EE2309F43CC0222339F1233091F05B
:1003E00038F42130A9F0223001F584B58F7D12C098
:1003F000263091F02730A1F02430B9F480918000AC
:100400008F7D03C0809180008F77809380000DC026
:1004100084B58F7784BD09C08091B0008F7703C009
:100420008091B0008F7D8093B000F0E0EE0FFF1F51
:10043000EE58FF4FA591B4919FB7F894611104C095
:100440008C913095382302C0EC913E2B3C939FBF9A
:100450000895CF93DF9390E0FC01E255FF4F249184
:10046000FC01E656FF4F8491882361F190E0880FEC
:10047000991FFC01E859FF4FC591D491FC01EE583A
:10048000FF4FA591B491611109C09FB7F89488817D
:10049000209582238883EC912E230BC0623061F477
:1004A0009FB7F8948881322F309583238883EC910D
:1004B0002E2B2C939FBF06C08FB7F894E8812E2B6C
:1004C00028838FBFDF91CF9108953FB7F894809133
:1004D000170190911801A0911901B0911A0126B548
:1004E000A89B05C02F3F19F00196A11DB11D3FBF6C
:1004F000BA2FA92F982F8827820F911DA11DB11DFA
:10050000BC01CD0142E0660F771F881F991F4A95F5
:10051000D1F708952FB7F8946091130170911401E9
:1005200080911501909116012FBF08958F929F928F
:10053000AF92BF92EF92FF920F931F93CF93DF93EF
:10054000CDB7DEB7A1970FB6F894DEBF0FBECDBF13
:10055000162F042F19A2423008F40AE07E0121E28E
:10056000E20EF11C802E912CA12CB12C612FA50143
:1005700094010E948509029F1019112481E0E81A54
:10058000F1081A3014F4105D01C0195CF7011083F2
:10059000122F732FCA01232B242B252B39F7E1149B
:1005A000F10469F001900020E9F73197AF014E198D
:1005B0005F09B7018EEE91E00E94B40102C080E0B5
:1005C00090E0A1960FB6F894DEBF0FBECDBFDF91CD
:1005D000CF911F910F91FF90EF90BF90AF909F90A0
:1005E0008F900895CF92DF92EF92FF92CF93DF9397
:1005F0006C01990FEE08FF08F7FE13C06DE28EEE56
:1006000091E00E941701EC0166277727CB016C1956
:100610007D098E099F094AE00E949602C80FD91FE2
:1006200006C04AE0C701B6010E949602EC016DE0E7
:100630008EEE91E00E9417017C016AE08EEE91E05F
:100640000E941701CE0DDF1D8C0F9D1FDF91CF91F2
:10065000FF90EF90DF90CF9008951F920F920FB60A
:100660000F9211242F933F938F939F93EF93FF93B8
:100670002091A6013091A7018091A8019091A90134
:100680002817390731F48091C1008F7D8093C10014
:1006900014C0E091A801F091A901EA59FE4F208110
:1006A0008091A8019091A90101968F739927909349
:1006B000A9018093A8012093C600FF91EF919F911B
:1006C0008F913F912F910F900FBE0F901F90189513
:1006D0001F920F920FB60F9211242F934F935F9397
:1006E0008F939F93EF93FF938091C00082FD1CC076
:1006F0002091C6008091EA019091EB014091EC01BC
:100700005091ED0101968F7399274817590771F0A1
:10071000E091EA01F091EB01E655FE4F20839093C2
:10072000EB018093EA0102C08091C600FF91EF9136
:100730009F918F915F914F912F910F900FBE0F90CE
:100740001F9018951F920F920FB60F9211242F939E
:100750003F938F939F93AF93BF9380911301909199
:100760001401A0911501B09116013091120123E0FE
:10077000230F2D3720F40196A11DB11D05C026E8D9
:10078000230F0296A11DB11D209312018093130126
:1007900090931401A0931501B09316018091170155
:1007A00090911801A0911901B0911A010196A11D13
:1007B000B11D8093170190931801A0931901B09374
:1007C0001A01BF91AF919F918F913F912F910F90FF
:1007D0000FBE0F901F901895EEEEF1E0138212827B
:1007E00088EE93E0A0E0B0E084839583A683B7838E
:1007F00084E091E0918380838AEA91E09587848701
:1008000086E691E09787868785EC90E0918B808BD8
:1008100084EC90E0938B828B80EC90E0958B848BC2
:1008200081EC90E0978B868B82EC90E0918F808FAB
:1008300086EC90E0938F828F84E0848F83E0858FB5
:1008400087E0868F85E0878F81E080A30895789484
:1008500084B5826084BD84B5816084BD85B58260C5
:1008600085BD85B5816085BD80916E008160809376
:100870006E001092810080918100826080938100DF
:1008800080918100816080938100809180008160EF
:10089000809380008091B10084608093B10080914A
:1008A000B00081608093B00080917A008460809372
:1008B0007A0080917A00826080937A0080917A0039
:1008C000816080937A0080917A00806880937A00BA
:1008D0001092C10061E082E00E94290261E086E09E
:1008E0000E94290261E084E00E94290261E085E023
:1008F0000E94290261E08AE00E94290260E08BE008
:100900000E94290261E08CE00E94290260E08DE0F3
:100910000E942902E0910202F091030281E090E03E
:100920009C0100900E0202C0220F331F0A94E2F7CE
:100930002083E091FE01F091FF011082E09100021E
:10094000F09101022FEC208310920F02E09104023B
:10095000F091050240819C0100900A0202C0220F22
:10096000331F0A94E2F7242B2083E0910402F091D4
:10097000050240819C0100900B0202C0220F331F30
:100980000A94E2F7242B2083E0910402F0910502FF
:1009900040819C0100900C0202C0220F331F0A9478
:1009A000E2F7242B2083E0910402F09105022081DC
:1009B00000900D0202C0880F991F0A94E2F78095FB
:1009C0008223808360E08AE00E94DC0160E08CE0AA
:1009D0000E94DC0110926501109264011092630183
:1009E00010926201109261011092600101E010E02A
:1009F00064E6262E312C72E0872E912CA12CB12C8E
:100A0000E3E24E2E512CF3E36F2E712C80916401A2
:100A1000909165018A38910509F464C140F400970A
:100A200009F448C08238910509F445C11EC28E38C8
:100A3000910509F48CC18239910509F4C0C115C230
:100A400080912F0190913001009709F486C00197A1
:100A500009F497C0809133019091340190932A0159
:100A60008093290110923401109233019093280150
:100A70008093270148E9C42E4AE3D42ED092260160
:100A8000C0922501883C91050CF097C097FD019616
:100A9000959587959093240180932301C091290116
:100AA000D0912A011C161D060CF48CC061E087E071
:100AB0000E94DC018EEE91E00E94A001892B09F4D6
:100AC000BFCF55E3C52E51E0D52EC0E0D0E00E9447
:100AD0008A026093F6017093F7018093F801909376
:100AE000F9018EEE91E00E94640197FF7FC20E949F
:100AF0008A022091F6013091F7014091F80150915E
:100B0000F901DC01CB01821B930BA40BB50B2091E7
:100B1000F2013091F3014091F4015091F5018217F7
:100B20009307A407B507E8F2CB5CDE4F188260E1BB
:100B300071E085E391E00E942008CFE2D1E00097C8
:100B400009F47ECF0E94FF078993999360E171E0D9
:100B500080E090E00E942008F2CF809131019091D6
:100B600032018130910529F410922E0110922D014D
:100B700013C0892B09F06ECF10932E0100932D0125
:100B800017C080913101909132018130910549F473
:100B900090932E0180932D0190932C0180932B0133
:100BA00059CF892B09F056CF10922E0110922D01AA
:100BB00010922C0110922B014DCF309224012092E3
:100BC00023016CCF80912F019091300181309105EC
:100BD00049F420E3E22E25E7F22EF0922601E0927E
:100BE00025012BC0892B49F5809123019091240187
:100BF000AE01480F591F2091270130912801241779
:100C000035073CF480912501909126018456910985
:100C100009C0C817D9075CF480912501909126017D
:100C20008C599F4F909326018093250106C028E898
:100C300033E1309326012093250160E087E00E9494
:100C4000DC018091270190912801C817D90719F17B
:100C500060912D0186E00E94DC0160912B0185E00E
:100C60000E94DC0161E082E00E94DC0161E084E03E
:100C70000E94DC010E94650260931F0170932001B5
:100C800080932101909322018AE890E0909365017E
:100C90008093640127C00E948A0260931F017093B1
:100CA00020018093210190932201E2E8F0E0F0938B
:100CB0006501E09364010E948A0220911F01309136
:100CC00020014091210150912201DC01CB01821BC6
:100CD000930BA40BB50B8B3F9105A105B10508F053
:100CE000B7CFC7C00E94650220911F01309120013B
:100CF00040912101509122016B017C01C21AD30A5B
:100D0000E40AF50A8091250190912601A0E0B0E067
:100D10008C159D05AE05BF0508F0ABC060E082E014
:100D20000E94DC0160E084E00E94DC010E94650218
:100D300060931F0170932001809321019093220101
:100D40009EE8E92EF12CF0926501E09264010E9488
:100D5000650220911F0130912001409121015091A5
:100D600022016B017C01C21AD30AE40AF50A8091C0
:100D7000250190912601A0E0B0E08C159D05AE05FF
:100D8000BF0508F076C08091290190912A01019752
:100D900090932A0180932901892BB1F50E948A0240
:100DA00060931F0170932001809321019093220191
:100DB00082E9E82EF12CF0926501E09264010E9434
:100DC0008A0220911F013091200140912101509110
:100DD0002201DC01CB01821B930BA40BB50B853FD9
:100DE0009140A105B10508F444C080911D01909186
:100DF0001E01892B29F080911B0190911C0102C0DA
:100E000080E090E00E94F20280912F0190913001E9
:100E1000019709F443CE20915401309155012931B5
:100E200031053CF080915A0190915B0149970CF09B
:100E300035CE809123019091240140912901509158
:100E40002A01841795070CF029CE232B09F426CE0E
:100E500090932A018093290110921C0110921B018A
:100E600010931E0100931D0119CE1092650110927E
:100E700064018091620190916301009709F443C07D
:100E8000839709F04FC00E948A0220915601309149
:100E900057014091580150915901DC01CB01821B4F
:100EA000930BA40BB50B803A9140A105B10508F452
:100EB0003DC061E08AE00E94DC0182E290E001979F
:100EC000F1F760E08AE00E94DC0148EB5BE060E063
:100ED00070E08BE00E948C00A50194010E94A7099C
:100EE000CA01B9010E948C0826E933E44BE05DE3B6
:100EF0000E94F0080E9454087093550160935401B9
:100F0000CB010E94F2020E948A0260935601709304
:100F10005701809358019093590150926301409278
:100F20006201B1CF10926301109262018091600161
:100F300090916101009709F443C0C39709F04FC035
:100F40000E948A0220915C0130915D0140915E0116
:100F500050915F01DC01CB01821B930BA40BB50BFD
:100F600081399140A105B10508F43DC061E08CE0F4
:100F70000E94DC0182E290E00197F1F760E08CE0F2
:100F80000E94DC0140E355E760E070E08DE00E94E4
:100F90008C00A50194010E94A709CA01B9010E9411
:100FA0008C0826E933E44BE05DE30E94F0080E94E0
:100FB000540870935B0160935A01CB010E94F202C6
:100FC0000E948A0260935C0170935D0180935E01D0
:100FD00090935F017092610160926001B1CF1092B5
:100FE0006101109260010E94B00110CDF601819361
:100FF0006F012196CF31D10509F069CD95CDFC0166
:1010000088279927E89421912032E9F3293010F0BC
:101010002E30C8F32B3241F02D3239F4689404C0DD
:101020000E944C08820F911D219120532A30C0F359
:101030001EF4909581959F4F0895F8940C94E609BD
:1010400040E152E00E9425080895FA01A191B08183
:10105000009719F41097E1F0CD01DC01CD010D905E
:10106000002011F4C00113C0FB012191222319F0CB
:101070002015D9F7F3CFFB012191201519F41E9209
:10108000119606C02223C1F70D900020A1F7D001D0
:10109000FA01A193B08308957AE0979F902D879FDE
:1010A000802D910D112408950E945B086894B11160
:1010B0000C94EA0808950E94CF0888F09F5798F092
:1010C000B92F9927B751B0F0E1F0660F771F881F4D
:1010D000991F1AF0BA95C9F714C0B13091F00E9467
:1010E000E908B1E008950C94E908672F782F882764
:1010F000B85F39F0B93FCCF3869577956795B3958E
:10110000D9F73EF490958095709561957F4F8F4FFC
:101110009F4F0895E89409C097FB3EF49095809501
:10112000709561957F4F8F4F9F4F9923A9F0F92FAD
:1011300096E9BB279395F695879577956795B7952B
:10114000F111F8CFFAF4BB0F11F460FF1BC06F5F11
:101150007F4F8F4F9F4F16C0882311F096E911C023
:10116000772321F09EE8872F762F05C0662371F044
:1011700096E8862F70E060E02AF09A95660F771F58
:10118000881FDAF7880F9695879597F9089557FD88
:101190009058440F551F59F05F3F71F04795880FE5
:1011A00097FB991F61F09F3F79F08795089512167C
:1011B00013061406551FF2CF4695F1DF08C0161628
:1011C00017061806991FF1CF8695710561050894D9
:1011D0000895E894BB2766277727CB0197F90895F0
:1011E0000E9403090C9474090E94660938F00E9459
:1011F0006D0920F0952311F00C945D090C9463099E
:1012000011240C94EA080E94C70870F3959FC1F35B
:10121000950F50E0551F629FF001729FBB27F00DA4
:10122000B11D639FAA27F00DB11DAA1F649F6627F9
:10123000B00DA11D661F829F2227B00DA11D621F48
:10124000739FB00DA11D621F839FA00D611D221F02
:10125000749F3327A00D611D231F849F600D211DE6
:10126000822F762F6A2F11249F5750409AF0F1F069
:1012700088234AF0EE0FFF1FBB1F661F771F881FD2
:1012800091505040A9F79E3F510580F00C945D09A4
:101290000C94EA085F3FE4F3983ED4F38695779583
:1012A0006795B795F795E7959F5FC1F7FE2B880F78
:1012B000911D9695879597F9089597F99F6780E80E
:1012C00070E060E008959FEF80EC089500240A9498
:1012D0001616170618060906089500240A94121611
:1012E0001306140605060895092E0394000C11F444
:1012F000882352F0BB0F40F4BF2B11F460FF04C0F1
:101300006F5F7F4F8F4F9F4F0895A1E21A2EAA1B48
:10131000BB1BFD010DC0AA1FBB1FEE1FFF1FA217A5
:10132000B307E407F50720F0A21BB30BE40BF50BA2
:10133000661F771F881F991F1A9469F7609570952B
:10134000809590959B01AC01BD01CF010895052EBC
:1013500097FB1EF400940E94BE0957FD07D00E941F
:10136000850907FC03D04EF40C94BE0950954095B6
:10137000309521953F4F4F4F5F4F08959095809541
:10138000709561957F4F8F4F9F4F08950E94D709A9
:10139000A59F900DB49F900DA49F800D911D1124C9
:1013A0000895EE0FFF1F0590F491E02D0994A29F80
:1013B000B001B39FC001A39F700D811D1124911D29
:1013C000B29F700D811D1124911D0895F894FFCFD7
:1013D000000000001701B401A0016401840159015B
:0213E0002C00DF
:00000001FF
