:100000000C945D000C9485000C9485000C94850084
:100010000C9485000C9485000C9485000C9485004C
:100020000C9485000C9485000C9485000C9485003C
:100030000C9485000C9485000C9485000C9485002C
:100040000C9413030C9485000C94D9020C949E021A
:100050000C9485000C9485000C9485000C9485000C
:100060000C9485000C9485000000000024002700FB
:100070002A0000000000250028002B0004040404CE
:100080000404040402020202020203030303030342
:10009000010204081020408001020408102001021F
:1000A00004081020000000070002010000030406FD
:1000B00000000000000000005D0311241FBECFEF10
:1000C000D8E0DEBFCDBF22E0A2E1B1E001C01D92C9
:1000D000A230B207E1F711E0A0E0B1E0E6EFFDE009
:1000E00002C005900D92A231B107D9F710E0CDE51D
:1000F000D0E004C02197FE010E94F306CC35D10761
:10010000C9F70E9498030C949A060C940000089575
:100110000F931F93CF93DF93FC01A685B7858D01C5
:10012000005C1F4FE8018881998101968F739927A0
:10013000AD014E5B5F4FEA012881398128173907ED
:10014000D1F3E80128813981A20FB31F6C93A685F2
:10015000B785A05CBF4F11969C938E93A689B789F3
:100160002C9181E090E0078C02C0880F991F0A94BF
:10017000E2F7822B8C9381E081A30488F589E02D3E
:1001800080818064808381E090E0DF91CF911F9136
:100190000F910895FC0181A1882329F0A489B589D4
:1001A0008C9186FFFBCF11A20895FC01A485B58533
:1001B000FD01E05CFF4F2081318132968081918189
:1001C0002817390779F080819181A80FB91F8C9188
:1001D000208131812F5F3F4F2F733327318320835D
:1001E00090E008958FEF9FEF0895DC011C96ED914C
:1001F000FC911D97DF01A05CBF4F2D913C911197A1
:1002000012968D919C9111972817390739F08D918D
:100210009C91E80FF91F808190E008958FEF9FEF88
:100220000895FC0124853585F901E05CFF4F80814C
:100230009181329620813181821B930B8F73992794
:1002400008958EED91E00C941101CF92DF92EF9220
:10025000FF920F931F93CF93DF936C01EB017B0110
:10026000E40EF51E00E010E0CE15DF0561F06991A7
:10027000D601ED91FC910190F081E02DC601099528
:10028000080F191FF1CFC801DF91CF911F910F9176
:10029000FF90EF90DF90CF90089590E0FC01EC5537
:1002A000FF4F2491FC01E057FF4F3491FC01E458CB
:1002B000FF4FE491EE2309F43CC0222339F12330AF
:1002C00091F038F42130A9F0223001F584B58F7D0A
:1002D00012C0263091F02730A1F02430B9F480917B
:1002E00080008F7D03C0809180008F778093800095
:1002F0000DC084B58F7784BD09C08091B0008F7721
:1003000003C08091B0008F7D8093B000F0E0EE0FCD
:10031000FF1FEE58FF4FA591B4919FB7F89461115C
:1003200004C08C913095382302C0EC913E2B3C9355
:100330009FBF0895CF93DF9390E0FC01E057FF4FFC
:100340002491FC01E458FF4F8491882361F190E0EF
:10035000880F991FFC01E859FF4FC591D491FC010A
:10036000EE58FF4FA591B491611109C09FB7F89461
:100370008881209582238883EC912E230BC06230E4
:1003800061F49FB7F8948881322F30958323888356
:10039000EC912E2B2C939FBF06C08FB7F894E88169
:1003A0002E2B28838FBFDF91CF9108953FB7F8940C
:1003B0008091170190911801A0911901B0911A0133
:1003C00026B5A89B05C02F3F19F00196A11DB11DB0
:1003D0003FBFBA2FA92F982F8827820F911DA11DEB
:1003E000B11DBC01CD0142E0660F771F881F991F28
:1003F0004A95D1F708952FB7F89460911301709141
:10040000140180911501909116012FBF08958F92CC
:100410009F92AF92BF92EF92FF920F931F93CF9351
:10042000DF93CDB7DEB7A1970FB6F894DEBF0FBE4E
:10043000CDBF162F042F19A2423008F40AE07E0126
:1004400021E2E20EF11C802E912CA12CB12C612F07
:10045000A50194010E94D106029F1019112481E088
:10046000E81AF1081A3014F4105D01C0195CF701A4
:100470001083122F732FCA01232B242B252B39F71E
:10048000E114F10469F001900020E9F73197AF0120
:100490004E195F09B7018EED91E00E94250102C05F
:1004A00080E090E0A1960FB6F894DEBF0FBECDBFFE
:1004B000DF91CF911F910F91FF90EF90BF90AF9080
:1004C0009F908F900895CF92DF92EF92FF92CF93FB
:1004D000DF936C01990FEE08FF08F7FE13C06DE281
:1004E0008EED91E00E948800EC0166277727CB0112
:1004F0006C197D098E099F094AE00E940702C80F06
:10050000D91F06C04AE0C701B6010E940702EC01EC
:100510006DE08EED91E00E9488007C016AE08EED36
:1005200091E00E948800CE0DDF1D8C0F9D1FDF9192
:10053000CF91FF90EF90DF90CF9008951F920F9290
:100540000FB60F9211242F933F938F939F93EF93A6
:10055000FF9320919601309197018091980190919D
:1005600099012817390731F48091C1008F7D80935C
:10057000C10014C0E0919801F0919901EA5AFE4F30
:100580002081809198019091990101968F7399270C
:1005900090939901809398012093C600FF91EF9169
:1005A0009F918F913F912F910F900FBE0F901F90B1
:1005B00018951F920F920FB60F9211242F934F93FD
:1005C0005F938F939F93EF93FF938091C00082FD81
:1005D0001CC02091C6008091DA019091DB0140910E
:1005E000DC015091DD0101968F7399274817590757
:1005F00071F0E091DA01F091DB01E656FE4F2083C5
:100600009093DB018093DA0102C08091C600FF91D4
:10061000EF919F918F915F914F912F910F900FBE0E
:100620000F901F9018951F920F920FB60F921124E2
:100630002F933F938F939F93AF93BF938091130119
:1006400090911401A0911501B09116013091120101
:1006500023E0230F2D3720F40196A11DB11D05C005
:1006600026E8230F0296A11DB11D2093120180934D
:10067000130190931401A0931501B093160180917A
:10068000170190911801A0911901B0911A010196DA
:10069000A11DB11D8093170190931801A09319011A
:1006A000B0931A01BF91AF919F918F913F912F917C
:1006B0000F900FBE0F901F901895EEEDF1E0138292
:1006C000128288EE93E0A0E0B0E084839583A68355
:1006D000B78384E091E0918380838AE991E09587F4
:1006E000848786E591E09787868785EC90E0918BFB
:1006F000808B84EC90E0938B828B80EC90E0958BE8
:10070000848B81EC90E0978B868B82EC90E0918FCC
:10071000808F86EC90E0938F828F84E0848F83E0DB
:10072000858F87E0868F85E0878F81E080A308959D
:10073000789484B5826084BD84B5816084BD85B5BC
:10074000826085BD85B5816085BD80916E008160C8
:1007500080936E001092810080918100826080936E
:100760008100809181008160809381008091800070
:100770008160809380008091B10084608093B1009B
:100780008091B00081608093B00080917A00846095
:1007900080937A0080917A00826080937A008091C1
:1007A0007A00816080937A0080917A0080688093DB
:1007B0007A001092C10061E082E00E949A0161E03B
:1007C00086E00E949A0161E084E00E949A0161E063
:1007D00085E00E949A0161E08AE00E949A0160E04F
:1007E0008BE00E949A0161E08CE00E949A0160E037
:1007F0008DE00E949A01E091F201F091F30181E015
:1008000090E09C010090FE0102C0220F331F0A9469
:10081000E2F72083E091EE01F091EF011082E09188
:10082000F001F091F1012FEC20831092FF01E09193
:10083000F401F091F50140819C010090FA0102C0A1
:10084000220F331F0A94E2F7242B2083E091F40156
:10085000F091F50140819C010090FB0102C0220F44
:10086000331F0A94E2F7242B2083E091F401F091E6
:10087000F50140819C010090FC0102C0220F331F52
:100880000A94E2F7242B2083E091F401F091F50122
:1008900020810090FD0102C0880F991F0A94E2F7A1
:1008A00080958223808360E08AE00E944D0160E0B1
:1008B0008CE00E944D01109255011092540138E8CD
:1008C000232E312C40E8442E512C58E8652E53E15C
:1008D000752E60E3862E65E7962E78E9E72E7AE39B
:1008E000F72EE4E6CE2ED12CAA24A394B12C80912D
:1008F0005401909155018838910509F458C140F48C
:10090000009709F448C08038910509F439C1E4C161
:100910008C38910509F47FC18039910509F4B3C180
:10092000DBC180912F0190913001009709F484C0C0
:10093000019709F495C0809133019091340190930F
:100940002A0180932901109234011092330190936F
:10095000280180932701F0922601E0922501883C2E
:1009600091050CF099C097FD019695958795909308
:100970002401809323011092220110922101C09141
:100980002901D0912A011C161D060CF48AC061E0D1
:1009900087E00E944D018EED91E00E941101892BAC
:1009A00009F4BFCF05E311E0C0E0D0E00E94FB01F5
:1009B0006093E6017093E7018093E8019093E90169
:1009C0008EED91E00E94D50097FF8DC10E94FB0142
:1009D0002091E6013091E7014091E8015091E90151
:1009E000DC01CB01821B930BA40BB50B2091E20120
:1009F0003091E3014091E4015091E50182179307A2
:100A0000A407B507E8F2CB5CDE4F188260E171E025
:100A100085E391E00E949D06CFE2D1E0009709F4C2
:100A200080CF0E947C068993999360E171E080E019
:100A300090E00E949D06F2CF8091310190913201A9
:100A40008130910529F410922E0110922D0113C0CE
:100A5000892B09F070CFB0922E01A0922D0117C002
:100A600080913101909132018130910549F4909348
:100A70002E0180932D0190932C0180932B015BCF4D
:100A8000892B09F058CF10922E0110922D0110924F
:100A90002C0110922B014FCFD0922401C092230140
:100AA0006ACF80912F01909130018130910529F416
:100AB000909226018092250129C0892B39F58091D9
:100AC000230190912401AE01480F591F2091270165
:100AD00030912801241735073CF48091250190912D
:100AE00026018456910909C0C817D9075CF4809182
:100AF0002501909126018C599F4F90932601809358
:100B0000250104C0709226016092250160E087E013
:100B10000E944D018091270190912801C817D907A3
:100B200009F160912D0186E00E944D0160912B0139
:100B300085E00E944D0161E082E00E944D0161E08C
:100B400084E00E944D010E94D60160931D017093C4
:100B50001E0180931F019093200130925501209235
:100B6000540125C00E94FB0160931D0170931E017A
:100B700080931F019093200150925501409254019F
:100B80000E94FB0100911D0110911E0120911F0187
:100B900030912001DC01CB01801B910BA20BB30B28
:100BA0008B3F9105A105B10508F0BBCF99C00E940C
:100BB000D60100911D0110911E0120911F0130915D
:100BC0002001AB01BC01401B510B620B730B8091E8
:100BD000250190912601A0E0B0E084179507A607B3
:100BE000B70708F07DC060E082E00E944D0160E040
:100BF00084E00E944D010E94D60160931D01709314
:100C00001E0180931F01909320018CE890E0909347
:100C10005501809354010E94D60100911D0110914D
:100C20001E0120911F0130912001AB01BC01401B2E
:100C3000510B620B730B8091250190912601A0E06E
:100C4000B0E084179507A607B70708F049C0809160
:100C5000290190912A01019790932A0180932901FB
:100C6000892B09F08CCE0E94FB0160931D017093CB
:100C70001E0180931F0190932001E0E9F0E0F093C2
:100C80005501E09354010E94FB0100911D01109158
:100C90001E0120911F0130912001DC01CB01801B3E
:100CA000910BA20BB30B853F9140A105B105C0F09C
:100CB00080912101909122018130910529F4809148
:100CC0001B0190911C0105C0892B09F058CE80E0D2
:100CD00090E00E94630253CE10925501109254018D
:100CE0000E94210104CEF80181938F012196CF311A
:100CF000D10509F05BCE87CEFC0188279927E894BF
:100D000021912032E9F3293010F02E30C8F32B3234
:100D100041F02D3239F4689404C00E94C906820F54
:100D2000911D219120532A30C0F31EF49095819596
:100D30009F4F0895F8940C94F90640E052E00E9409
:100D4000A2060895FA01A191B081009719F41097B5
:100D5000E1F0CD01DC01CD010D90002011F4C001C6
:100D600013C0FB012191222319F02015D9F7F3CFED
:100D7000FB012191201519F41E92119606C0222321
:100D8000C1F70D900020A1F7D001FA01A193B08323
:100D900008957AE0979F902D879F802D910D1124C3
:100DA0000895A1E21A2EAA1BBB1BFD010DC0AA1FAC
:100DB000BB1FEE1FFF1FA217B307E407F50720F0C4
:100DC000A21BB30BE40BF50B661F771F881F991F3F
:100DD0001A9469F760957095809590959B01AC0188
:100DE000BD01CF010895EE0FFF1F0590F491E02D96
:060DF0000994F894FFCF06
:100DF60000000000880025011101D500F500CA0099
:020E06002C00BE
:00000001FF
